:03000000020BC828
:0C0BC800787FE4F6D8FD758120020C0F48
:080DA0001818070808080700F5
:020DA800C10088
:100CC000C2A18F807F0F7E00120CD1D2A27F0F7E37
:010CD0000023
:100CD100D3EF9400EE940040147D6E7C00ED1D7006
:0D0CE100011CED4C70F7EF1F70E61E80E364
:010CEE0022E3
:100D6000E4FF740A2FF8E62430F5993099FDC29912
:060D70000FBF05EEC200FA
:010D7600225A
:100CEF00758921758DFD758DFD758C3C758AB0D21A
:0D0CFF00AFD28ED2A9D28C759850D2AC2203
:100C9000E4FFFE7D0CD292C291C2923090FDD291BF
:100CA000C291AC051DEC6015D291EF25E0FFEE334B
:0F0CB000FE3090050FBF00010EC29180E5D29279
:010CBF002212
:080D9800C2A0120CC0C2A2228D
:030D8D002430FF10
:080D9000D2A0120CC0C2A22285
:100D7700C2A27F38120D987F0C120D987F06120DB4
:060D8700987F01020D98A7
:100C54007F80120D987F54120D907F45120D907F66
:100C64004D120D907F50120D907F3A120D907F40DF
:100C7400120D98E4FBEB900DA093FF120D900BBBAB
:0C0C840008F37FC6120D98E4FF020D90EB
:100B2000AD07AC06E4120A037B7F7AFB793E78407E
:100B30001208F8E4FBFAF9783F120807120A3CABF6
:100B400007AA067C277D10120ABD7C007D0A120AC6
:100B5000BD8D0A7C037DE8AF03AE02120ABD7C00A6
:100B60007D0A120ABD8D0B7C007D64AF03AE0212BC
:100B70000ABD7C007D0A120ABD8D0C7C007D0AAF87
:100B800003AE02120ABD7C007D0A120ABD8D0DAEB5
:100B900002AF037C007D0A120ABD8D0E7FC0120DCC
:100BA00098E50A120D8DE50B120D8DE50C2430FF32
:100BB000120D907F2E120D90E50D2430FF120D9036
:080BC000E50E2430FF020D9048
:100D0C00120CEF120D77120C54E50F70FC120C90B4
:0D0D1C008F08120B203000F1120D6080ECEA
:03000B00020D459E
:100D4500C0E0C0D0758C3C758A6C050FE50FC39467
:0B0D5500024003750F00D0D0D0E03248
:03002300020D29A2
:100D2900C0E0C0D0309810C298859909E509B42669
:0C0D390004D2008002C299D0D0D0E03279
:10080000020AA8E86480F8E933E83360110460F074
:10081000ED33EC337009E8FCE9FDEAFEEBFF22045E
:1008200060DED3EB9FEA9EE99DE8C2E78CF0C2F759
:1008300095F0400CE8CCF8E9CDF9EACEFAEBCFFB25
:10084000120A7385D0F05804700320D5B3E8047001
:10085000075002B2D5020AB292D5EC0460F7E4CC9C
:10086000C0E0C398F8603B94186008400DD0E0FBEE
:10087000020A8AE4FBFAC9FC8028E830E406E4C9ED
:10088000FBE4CAFCE830E305E4C9CACBFCE8540742
:100890006010F8C3E913F9EA13FAEB13FBEC13FC4D
:1008A000D8F130F52FC3E49CFCEF9BFFEE9AFEEDF0
:1008B00099FDD0E0FBEF4E4D4C701222DB03020A93
:1008C000AFEC2CFCEF33FFEE33FEED33FDED30E704
:1008D000EB020A8AEF2BFFEE3AFEED39FDD0E0FB8A
:1008E00050130BBB0003020AB2ED13FDEE13FEEF33
:0808F00013FFEC13FC020A8A5D
:1008F800EC4D6011E8497017ED33EC3304600DE4FA
:10090800FCFFFEFD22E933E8330470F8020AA8125E
:100918000A7358046009E4CC24815006285009025F
:100928000AB2284003020AAFC0E0EB4A7044B9801B
:1009380006D0E0FB020A9EEF4E701CBD8008EBFF5C
:10094800EAFEE9FD80EBE98DF0A4FEE5F00209E19D
:10095800E9CDF9EAFEEBFFEF89F0A4FCE5F0CE89DA
:10096800F0A42EFFE435F0CD89F0A42DFEE435F097
:100978008067EF4E7005BD80D780C3EF8BF0A4ACC5
:10098800F0EE8BF0A42CFCE435F0F8EF8AF0A42C00
:10099800E5F038FCE433CB8DF0A42CFCE5F03BF813
:1009A800EE8AF0A42CFCE5F038F8E433CF89F0A403
:1009B8002CFCE5F038CF3400CE89F0A42FFFE5F009
:1009C8003EFEE433C98DF0A42EFEE5F039CD8AF061
:1009D800A42FFFE5F03EFEE43DFD33D0E0FB5007D9
:1009E8000BBB000F020AB2EC2CFCEF33FFEE33FE18
:0609F800ED33FD020A8A46
:1009FE0075F020800E75F010800575F0087D007E74
:100A0E00007F003392D530D503120B12EC33401019
:100A1E00EF33FFEE33FEED33FDEC33FCD5F0ED227C
:0E0A2E00E5F0247EA2D513CC92E7CDCEFF22B8
:100A3C00EDD2E7CD33EC3392D524814006E4FFFEB2
:100A4C00FDFC22FCE4CFCECDCC24E0501174FF8011
:100A5C00EDC3CC13CCCD13CDCE13CECF13CF0470AE
:070A6C00F030D5DE020B1291
:100A7300E9D2E7C933E833F892D5EDD2E7CD33ECC9
:070A830033FC5002B2D52242
:100A8A00EC30E7100FBF000C0EBE00080DBD0004CD
:100A9A000BEB6014A2D5EB13FCED92E7FD2274FF79
:100AAA00FCFDFEFF22E480F8A2D574FF13FC7D80D2
:030ABA00E480EFE6
:100BD400020D0CE493A3F8E493A34003F68001F21E
:100BE40008DFF48029E493A3F85407240CC8C33322
:100BF400C4540F4420C8834004F456800146F6DFF1
:100C0400E4800B0102040810204080900DA8E47ECB
:100C1400019360BCA3FF543F30E509541FFEE493E5
:100C2400A360010ECF54C025E060A840B8E493A3AC
:100C3400FAE493A3F8E493A3C8C582C8CAC583CAD7
:100C4400F0A3C8C582C8CAC583CADFE9DEE780BE8F
:010DAA000048
:100ABD00BC000BBE0029EF8DF084FFADF022E4CC1D
:100ACD00F875F008EF2FFFEE33FEEC33FCEE9DECE6
:100ADD00984005FCEE9DFE0FD5F0E9E4CEFD22ED2C
:100AED00F8F5F0EE8420D21CFEADF075F008EF2F76
:100AFD00FFED33FD4007985006D5F0F222C398FD67
:050B0D000FD5F0EA2203
:0E0B1200C3E49FFFE49EFEE49DFDE49CFC22F4
:00000001FF
